{
  "contractName": "Owner",
  "abi": [
    {
      "constant": true,
      "inputs": [
        {
          "name": "",
          "type": "uint256"
        }
      ],
      "name": "owners",
      "outputs": [
        {
          "name": "id",
          "type": "uint256"
        },
        {
          "name": "name",
          "type": "string"
        },
        {
          "name": "deviceId",
          "type": "string"
        },
        {
          "name": "nic",
          "type": "string"
        }
      ],
      "payable": false,
      "stateMutability": "view",
      "type": "function",
      "signature": "0x025e7c27"
    },
    {
      "constant": true,
      "inputs": [],
      "name": "OwnerCount",
      "outputs": [
        {
          "name": "",
          "type": "uint256"
        }
      ],
      "payable": false,
      "stateMutability": "view",
      "type": "function",
      "signature": "0x5f46d144"
    },
    {
      "inputs": [],
      "payable": false,
      "stateMutability": "nonpayable",
      "type": "constructor",
      "signature": "constructor"
    },
    {
      "constant": false,
      "inputs": [
        {
          "name": "_name",
          "type": "string"
        },
        {
          "name": "_deviceId",
          "type": "string"
        },
        {
          "name": "_nic",
          "type": "string"
        }
      ],
      "name": "createOwner",
      "outputs": [],
      "payable": false,
      "stateMutability": "nonpayable",
      "type": "function",
      "signature": "0x8a767122"
    }
  ],
  "bytecode": "0x60806040526000805534801561001457600080fd5b506100ce6040805190810160405280600481526020017f4a6f686e000000000000000000000000000000000000000000000000000000008152506040805190810160405280601081526020017f33616263646566326768696a6b336c6d000000000000000000000000000000008152506040805190810160405280600a81526020017f39363132333435363756000000000000000000000000000000000000000000008152506100d3640100000000026401000000009004565b610202565b60008054600190810180835560408051608081018252828152602080820189815282840189905260608301889052938652848152919094208451815591518051929361012793908501929190910190610167565b5060408201518051610143916002840191602090910190610167565b506060820151805161015f916003840191602090910190610167565b505050505050565b828054600181600116156101000203166002900490600052602060002090601f016020900481019282601f106101a857805160ff19168380011785556101d5565b828001600101855582156101d5579182015b828111156101d55782518255916020019190600101906101ba565b506101e19291506101e5565b5090565b6101ff91905b808211156101e157600081556001016101eb565b90565b6106e3806102116000396000f3fe6080604052600436106100565763ffffffff7c0100000000000000000000000000000000000000000000000000000000600035041663025e7c27811461005b5780635f46d144146101d05780638a767122146101f7575b600080fd5b34801561006757600080fd5b506100856004803603602081101561007e57600080fd5b50356103ba565b60405180858152602001806020018060200180602001848103845287818151815260200191508051906020019080838360005b838110156100d05781810151838201526020016100b8565b50505050905090810190601f1680156100fd5780820380516001836020036101000a031916815260200191505b50848103835286518152865160209182019188019080838360005b83811015610130578181015183820152602001610118565b50505050905090810190601f16801561015d5780820380516001836020036101000a031916815260200191505b50848103825285518152855160209182019187019080838360005b83811015610190578181015183820152602001610178565b50505050905090810190601f1680156101bd5780820380516001836020036101000a031916815260200191505b5097505050505050505060405180910390f35b3480156101dc57600080fd5b506101e5610582565b60408051918252519081900360200190f35b34801561020357600080fd5b506103b86004803603606081101561021a57600080fd5b81019060208101813564010000000081111561023557600080fd5b82018360208201111561024757600080fd5b8035906020019184600183028401116401000000008311171561026957600080fd5b91908080601f01602080910402602001604051908101604052809392919081815260200183838082843760009201919091525092959493602081019350359150506401000000008111156102bc57600080fd5b8201836020820111156102ce57600080fd5b803590602001918460018302840111640100000000831117156102f057600080fd5b91908080601f016020809104026020016040519081016040528093929190818152602001838380828437600092019190915250929594936020810193503591505064010000000081111561034357600080fd5b82018360208201111561035557600080fd5b8035906020019184600183028401116401000000008311171561037757600080fd5b91908080601f016020809104026020016040519081016040528093929190818152602001838380828437600092019190915250929550610588945050505050565b005b600160208181526000928352604092839020805481840180548651600296821615610100026000190190911695909504601f810185900485028601850190965285855290949193929091908301828280156104565780601f1061042b57610100808354040283529160200191610456565b820191906000526020600020905b81548152906001019060200180831161043957829003601f168201915b50505060028085018054604080516020601f60001961010060018716150201909416959095049283018590048502810185019091528181529596959450909250908301828280156104e85780601f106104bd576101008083540402835291602001916104e8565b820191906000526020600020905b8154815290600101906020018083116104cb57829003601f168201915b5050505060038301805460408051602060026001851615610100026000190190941693909304601f81018490048402820184019092528181529495949350908301828280156105785780601f1061054d57610100808354040283529160200191610578565b820191906000526020600020905b81548152906001019060200180831161055b57829003601f168201915b5050505050905084565b60005481565b6000805460019081018083556040805160808101825282815260208082018981528284018990526060830188905293865284815291909420845181559151805192936105dc9390850192919091019061061c565b50604082015180516105f891600284019160209091019061061c565b506060820151805161061491600384019160209091019061061c565b505050505050565b828054600181600116156101000203166002900490600052602060002090601f016020900481019282601f1061065d57805160ff191683800117855561068a565b8280016001018555821561068a579182015b8281111561068a57825182559160200191906001019061066f565b5061069692915061069a565b5090565b6106b491905b8082111561069657600081556001016106a0565b9056fea165627a7a723058208e5443d7dd98654ecf1e91180c0f74a70c439fa66d5762a49de8c9922cba075b0029",
  "source": "pragma solidity ^0.5.0;\r\n\r\ncontract Owner {\r\n  uint public OwnerCount = 0;\r\n\r\n   struct OwnerModel {\r\n     uint id;\r\n     string name;\r\n     string deviceId;\r\n     string nic;\r\n   }\r\n\r\n   mapping(uint => OwnerModel) public owners;\r\n\r\n   constructor() public {\r\n       createOwner(\"John\",\"3abcdef2ghijk3lm\",\"961234567V\");\r\n   }\r\n\r\n   function createOwner(string memory _name,string memory _deviceId,string memory _nic) public {\r\n     OwnerCount++;\r\n     owners[OwnerCount] = OwnerModel(OwnerCount,_name,_deviceId,_nic);\r\n   }\r\n\r\n}\r\n",
  "sourcePath": "C:/Users/Jahrin/Desktop/Research_part/2020-157/BackEnd/contracts/Owner.sol",
  "compiler": {
    "name": "solc",
    "version": "0.5.0+commit.1d4f565a.Emscripten.clang"
  },
  "schemaVersion": "3.0.1",
  "updatedAt": "2020-10-12T04:18:28.545Z",
  "devdoc": {
    "methods": {}
  },
  "userdoc": {
    "methods": {}
  }
}